{
  "_format": "hh-sol-artifact-1",
  "contractName": "LoyaltyProgram",
  "sourceName": "contracts/LoyaltyProgram.sol",
  "abi": [
    {
      "inputs": [
        {
          "internalType": "address",
          "name": "initialOwner",
          "type": "address"
        },
        {
          "internalType": "string",
          "name": "name",
          "type": "string"
        },
        {
          "internalType": "string",
          "name": "symbol",
          "type": "string"
        },
        {
          "internalType": "uint256",
          "name": "_expirationPeriod",
          "type": "uint256"
        },
        {
          "internalType": "uint256",
          "name": "_maxRedeemablePoints",
          "type": "uint256"
        }
      ],
      "stateMutability": "nonpayable",
      "type": "constructor"
    },
    {
      "inputs": [
        {
          "internalType": "address",
          "name": "spender",
          "type": "address"
        },
        {
          "internalType": "uint256",
          "name": "allowance",
          "type": "uint256"
        },
        {
          "internalType": "uint256",
          "name": "needed",
          "type": "uint256"
        }
      ],
      "name": "ERC20InsufficientAllowance",
      "type": "error"
    },
    {
      "inputs": [
        {
          "internalType": "address",
          "name": "sender",
          "type": "address"
        },
        {
          "internalType": "uint256",
          "name": "balance",
          "type": "uint256"
        },
        {
          "internalType": "uint256",
          "name": "needed",
          "type": "uint256"
        }
      ],
      "name": "ERC20InsufficientBalance",
      "type": "error"
    },
    {
      "inputs": [
        {
          "internalType": "address",
          "name": "approver",
          "type": "address"
        }
      ],
      "name": "ERC20InvalidApprover",
      "type": "error"
    },
    {
      "inputs": [
        {
          "internalType": "address",
          "name": "receiver",
          "type": "address"
        }
      ],
      "name": "ERC20InvalidReceiver",
      "type": "error"
    },
    {
      "inputs": [
        {
          "internalType": "address",
          "name": "sender",
          "type": "address"
        }
      ],
      "name": "ERC20InvalidSender",
      "type": "error"
    },
    {
      "inputs": [
        {
          "internalType": "address",
          "name": "spender",
          "type": "address"
        }
      ],
      "name": "ERC20InvalidSpender",
      "type": "error"
    },
    {
      "inputs": [
        {
          "internalType": "address",
          "name": "owner",
          "type": "address"
        }
      ],
      "name": "OwnableInvalidOwner",
      "type": "error"
    },
    {
      "inputs": [
        {
          "internalType": "address",
          "name": "account",
          "type": "address"
        }
      ],
      "name": "OwnableUnauthorizedAccount",
      "type": "error"
    },
    {
      "inputs": [],
      "name": "ReentrancyGuardReentrantCall",
      "type": "error"
    },
    {
      "anonymous": false,
      "inputs": [
        {
          "indexed": true,
          "internalType": "address",
          "name": "owner",
          "type": "address"
        },
        {
          "indexed": true,
          "internalType": "address",
          "name": "spender",
          "type": "address"
        },
        {
          "indexed": false,
          "internalType": "uint256",
          "name": "value",
          "type": "uint256"
        }
      ],
      "name": "Approval",
      "type": "event"
    },
    {
      "anonymous": false,
      "inputs": [
        {
          "indexed": true,
          "internalType": "address",
          "name": "previousOwner",
          "type": "address"
        },
        {
          "indexed": true,
          "internalType": "address",
          "name": "newOwner",
          "type": "address"
        }
      ],
      "name": "OwnershipTransferred",
      "type": "event"
    },
    {
      "anonymous": false,
      "inputs": [
        {
          "indexed": true,
          "internalType": "address",
          "name": "user",
          "type": "address"
        },
        {
          "indexed": false,
          "internalType": "uint256",
          "name": "amount",
          "type": "uint256"
        }
      ],
      "name": "PointsExpired",
      "type": "event"
    },
    {
      "anonymous": false,
      "inputs": [
        {
          "indexed": true,
          "internalType": "address",
          "name": "user",
          "type": "address"
        },
        {
          "indexed": false,
          "internalType": "uint256",
          "name": "amount",
          "type": "uint256"
        }
      ],
      "name": "PointsIssued",
      "type": "event"
    },
    {
      "anonymous": false,
      "inputs": [
        {
          "indexed": true,
          "internalType": "address",
          "name": "user",
          "type": "address"
        },
        {
          "indexed": false,
          "internalType": "uint256",
          "name": "amount",
          "type": "uint256"
        }
      ],
      "name": "PointsRedeemed",
      "type": "event"
    },
    {
      "anonymous": false,
      "inputs": [
        {
          "indexed": true,
          "internalType": "address",
          "name": "from",
          "type": "address"
        },
        {
          "indexed": true,
          "internalType": "address",
          "name": "to",
          "type": "address"
        },
        {
          "indexed": false,
          "internalType": "uint256",
          "name": "value",
          "type": "uint256"
        }
      ],
      "name": "Transfer",
      "type": "event"
    },
    {
      "inputs": [
        {
          "internalType": "address",
          "name": "owner",
          "type": "address"
        },
        {
          "internalType": "address",
          "name": "spender",
          "type": "address"
        }
      ],
      "name": "allowance",
      "outputs": [
        {
          "internalType": "uint256",
          "name": "",
          "type": "uint256"
        }
      ],
      "stateMutability": "view",
      "type": "function"
    },
    {
      "inputs": [
        {
          "internalType": "address",
          "name": "spender",
          "type": "address"
        },
        {
          "internalType": "uint256",
          "name": "value",
          "type": "uint256"
        }
      ],
      "name": "approve",
      "outputs": [
        {
          "internalType": "bool",
          "name": "",
          "type": "bool"
        }
      ],
      "stateMutability": "nonpayable",
      "type": "function"
    },
    {
      "inputs": [
        {
          "internalType": "address",
          "name": "",
          "type": "address"
        }
      ],
      "name": "approvedPartners",
      "outputs": [
        {
          "internalType": "bool",
          "name": "",
          "type": "bool"
        }
      ],
      "stateMutability": "view",
      "type": "function"
    },
    {
      "inputs": [
        {
          "internalType": "address",
          "name": "account",
          "type": "address"
        }
      ],
      "name": "balanceOf",
      "outputs": [
        {
          "internalType": "uint256",
          "name": "",
          "type": "uint256"
        }
      ],
      "stateMutability": "view",
      "type": "function"
    },
    {
      "inputs": [],
      "name": "decimals",
      "outputs": [
        {
          "internalType": "uint8",
          "name": "",
          "type": "uint8"
        }
      ],
      "stateMutability": "view",
      "type": "function"
    },
    {
      "inputs": [],
      "name": "expirationPeriod",
      "outputs": [
        {
          "internalType": "uint256",
          "name": "",
          "type": "uint256"
        }
      ],
      "stateMutability": "view",
      "type": "function"
    },
    {
      "inputs": [
        {
          "internalType": "address",
          "name": "user",
          "type": "address"
        }
      ],
      "name": "expirePoints",
      "outputs": [],
      "stateMutability": "nonpayable",
      "type": "function"
    },
    {
      "inputs": [
        {
          "internalType": "address",
          "name": "user",
          "type": "address"
        }
      ],
      "name": "getPointsBalance",
      "outputs": [
        {
          "internalType": "uint256",
          "name": "",
          "type": "uint256"
        }
      ],
      "stateMutability": "view",
      "type": "function"
    },
    {
      "inputs": [
        {
          "internalType": "address",
          "name": "user",
          "type": "address"
        }
      ],
      "name": "isExpired",
      "outputs": [
        {
          "internalType": "bool",
          "name": "",
          "type": "bool"
        }
      ],
      "stateMutability": "view",
      "type": "function"
    },
    {
      "inputs": [
        {
          "internalType": "address",
          "name": "to",
          "type": "address"
        },
        {
          "internalType": "uint256",
          "name": "amount",
          "type": "uint256"
        }
      ],
      "name": "issuePoints",
      "outputs": [],
      "stateMutability": "nonpayable",
      "type": "function"
    },
    {
      "inputs": [],
      "name": "maxRedeemablePoints",
      "outputs": [
        {
          "internalType": "uint256",
          "name": "",
          "type": "uint256"
        }
      ],
      "stateMutability": "view",
      "type": "function"
    },
    {
      "inputs": [],
      "name": "name",
      "outputs": [
        {
          "internalType": "string",
          "name": "",
          "type": "string"
        }
      ],
      "stateMutability": "view",
      "type": "function"
    },
    {
      "inputs": [],
      "name": "owner",
      "outputs": [
        {
          "internalType": "address",
          "name": "",
          "type": "address"
        }
      ],
      "stateMutability": "view",
      "type": "function"
    },
    {
      "inputs": [
        {
          "internalType": "address",
          "name": "from",
          "type": "address"
        },
        {
          "internalType": "uint256",
          "name": "amount",
          "type": "uint256"
        }
      ],
      "name": "redeemPoints",
      "outputs": [],
      "stateMutability": "nonpayable",
      "type": "function"
    },
    {
      "inputs": [
        {
          "internalType": "address",
          "name": "from",
          "type": "address"
        },
        {
          "internalType": "uint256",
          "name": "amount",
          "type": "uint256"
        },
        {
          "internalType": "address",
          "name": "partner",
          "type": "address"
        }
      ],
      "name": "redeemWithPartner",
      "outputs": [],
      "stateMutability": "nonpayable",
      "type": "function"
    },
    {
      "inputs": [],
      "name": "renounceOwnership",
      "outputs": [],
      "stateMutability": "nonpayable",
      "type": "function"
    },
    {
      "inputs": [
        {
          "internalType": "address",
          "name": "partner",
          "type": "address"
        },
        {
          "internalType": "bool",
          "name": "status",
          "type": "bool"
        }
      ],
      "name": "setApprovedPartner",
      "outputs": [],
      "stateMutability": "nonpayable",
      "type": "function"
    },
    {
      "inputs": [],
      "name": "symbol",
      "outputs": [
        {
          "internalType": "string",
          "name": "",
          "type": "string"
        }
      ],
      "stateMutability": "view",
      "type": "function"
    },
    {
      "inputs": [],
      "name": "totalSupply",
      "outputs": [
        {
          "internalType": "uint256",
          "name": "",
          "type": "uint256"
        }
      ],
      "stateMutability": "view",
      "type": "function"
    },
    {
      "inputs": [
        {
          "internalType": "address",
          "name": "to",
          "type": "address"
        },
        {
          "internalType": "uint256",
          "name": "value",
          "type": "uint256"
        }
      ],
      "name": "transfer",
      "outputs": [
        {
          "internalType": "bool",
          "name": "",
          "type": "bool"
        }
      ],
      "stateMutability": "nonpayable",
      "type": "function"
    },
    {
      "inputs": [
        {
          "internalType": "address",
          "name": "from",
          "type": "address"
        },
        {
          "internalType": "address",
          "name": "to",
          "type": "address"
        },
        {
          "internalType": "uint256",
          "name": "value",
          "type": "uint256"
        }
      ],
      "name": "transferFrom",
      "outputs": [
        {
          "internalType": "bool",
          "name": "",
          "type": "bool"
        }
      ],
      "stateMutability": "nonpayable",
      "type": "function"
    },
    {
      "inputs": [
        {
          "internalType": "address",
          "name": "newOwner",
          "type": "address"
        }
      ],
      "name": "transferOwnership",
      "outputs": [],
      "stateMutability": "nonpayable",
      "type": "function"
    },
    {
      "inputs": [
        {
          "internalType": "uint256",
          "name": "newExpirationPeriod",
          "type": "uint256"
        }
      ],
      "name": "updateExpirationPeriod",
      "outputs": [],
      "stateMutability": "nonpayable",
      "type": "function"
    },
    {
      "inputs": [
        {
          "internalType": "uint256",
          "name": "newMaxRedeemablePoints",
          "type": "uint256"
        }
      ],
      "name": "updateMaxRedeemablePoints",
      "outputs": [],
      "stateMutability": "nonpayable",
      "type": "function"
    }
  ],
  "bytecode": "0x60806040523480156200001157600080fd5b5060405162002f9e38038062002f9e833981810160405281019062000037919062000706565b84848481600390816200004b919062000a0d565b5080600490816200005d919062000a0d565b505050600073ffffffffffffffffffffffffffffffffffffffff168173ffffffffffffffffffffffffffffffffffffffff1603620000d55760006040517f1e4fbdf7000000000000000000000000000000000000000000000000000000008152600401620000cc919062000b05565b60405180910390fd5b620000e6816200014760201b60201c565b5060016006819055508160088190555080600a819055506200013c85620001126200020d60201b60201c565b600a62000120919062000cb2565b620f424062000130919062000d03565b6200021660201b60201c565b505050505062000df4565b6000600560009054906101000a900473ffffffffffffffffffffffffffffffffffffffff16905081600560006101000a81548173ffffffffffffffffffffffffffffffffffffffff021916908373ffffffffffffffffffffffffffffffffffffffff1602179055508173ffffffffffffffffffffffffffffffffffffffff168173ffffffffffffffffffffffffffffffffffffffff167f8be0079c531659141344cd1fd0a4f28419497f9722a3daafe3b4186f6b6457e060405160405180910390a35050565b60006012905090565b600073ffffffffffffffffffffffffffffffffffffffff168273ffffffffffffffffffffffffffffffffffffffff16036200028b5760006040517fec442f0500000000000000000000000000000000000000000000000000000000815260040162000282919062000b05565b60405180910390fd5b6200029f60008383620002a360201b60201c565b5050565b600073ffffffffffffffffffffffffffffffffffffffff168373ffffffffffffffffffffffffffffffffffffffff1603620002f9578060026000828254620002ec919062000d4e565b92505081905550620003cf565b60008060008573ffffffffffffffffffffffffffffffffffffffff1673ffffffffffffffffffffffffffffffffffffffff1681526020019081526020016000205490508181101562000388578381836040517fe450d38c0000000000000000000000000000000000000000000000000000000081526004016200037f9392919062000d9a565b60405180910390fd5b8181036000808673ffffffffffffffffffffffffffffffffffffffff1673ffffffffffffffffffffffffffffffffffffffff16815260200190815260200160002081905550505b600073ffffffffffffffffffffffffffffffffffffffff168273ffffffffffffffffffffffffffffffffffffffff16036200041a578060026000828254039250508190555062000467565b806000808473ffffffffffffffffffffffffffffffffffffffff1673ffffffffffffffffffffffffffffffffffffffff168152602001908152602001600020600082825401925050819055505b8173ffffffffffffffffffffffffffffffffffffffff168373ffffffffffffffffffffffffffffffffffffffff167fddf252ad1be2c89b69c2b068fc378daa952ba7f163c4a11628f55a4df523b3ef83604051620004c6919062000dd7565b60405180910390a3505050565b6000604051905090565b600080fd5b600080fd5b600073ffffffffffffffffffffffffffffffffffffffff82169050919050565b60006200051482620004e7565b9050919050565b620005268162000507565b81146200053257600080fd5b50565b60008151905062000546816200051b565b92915050565b600080fd5b600080fd5b6000601f19601f8301169050919050565b7f4e487b7100000000000000000000000000000000000000000000000000000000600052604160045260246000fd5b620005a18262000556565b810181811067ffffffffffffffff82111715620005c357620005c262000567565b5b80604052505050565b6000620005d8620004d3565b9050620005e6828262000596565b919050565b600067ffffffffffffffff82111562000609576200060862000567565b5b620006148262000556565b9050602081019050919050565b60005b838110156200064157808201518184015260208101905062000624565b60008484015250505050565b6000620006646200065e84620005eb565b620005cc565b90508281526020810184848401111562000683576200068262000551565b5b6200069084828562000621565b509392505050565b600082601f830112620006b057620006af6200054c565b5b8151620006c28482602086016200064d565b91505092915050565b6000819050919050565b620006e081620006cb565b8114620006ec57600080fd5b50565b6000815190506200070081620006d5565b92915050565b600080600080600060a08688031215620007255762000724620004dd565b5b6000620007358882890162000535565b955050602086015167ffffffffffffffff811115620007595762000758620004e2565b5b620007678882890162000698565b945050604086015167ffffffffffffffff8111156200078b576200078a620004e2565b5b620007998882890162000698565b9350506060620007ac88828901620006ef565b9250506080620007bf88828901620006ef565b9150509295509295909350565b600081519050919050565b7f4e487b7100000000000000000000000000000000000000000000000000000000600052602260045260246000fd5b600060028204905060018216806200081f57607f821691505b602082108103620008355762000834620007d7565b5b50919050565b60008190508160005260206000209050919050565b60006020601f8301049050919050565b600082821b905092915050565b6000600883026200089f7fffffffffffffffffffffffffffffffffffffffffffffffffffffffffffffffff8262000860565b620008ab868362000860565b95508019841693508086168417925050509392505050565b6000819050919050565b6000620008ee620008e8620008e284620006cb565b620008c3565b620006cb565b9050919050565b6000819050919050565b6200090a83620008cd565b620009226200091982620008f5565b8484546200086d565b825550505050565b600090565b620009396200092a565b62000946818484620008ff565b505050565b5b818110156200096e57620009626000826200092f565b6001810190506200094c565b5050565b601f821115620009bd5762000987816200083b565b620009928462000850565b81016020851015620009a2578190505b620009ba620009b18562000850565b8301826200094b565b50505b505050565b600082821c905092915050565b6000620009e260001984600802620009c2565b1980831691505092915050565b6000620009fd8383620009cf565b9150826002028217905092915050565b62000a1882620007cc565b67ffffffffffffffff81111562000a345762000a3362000567565b5b62000a40825462000806565b62000a4d82828562000972565b600060209050601f83116001811462000a85576000841562000a70578287015190505b62000a7c8582620009ef565b86555062000aec565b601f19841662000a95866200083b565b60005b8281101562000abf5784890151825560018201915060208501945060208101905062000a98565b8683101562000adf578489015162000adb601f891682620009cf565b8355505b6001600288020188555050505b505050505050565b62000aff8162000507565b82525050565b600060208201905062000b1c600083018462000af4565b92915050565b7f4e487b7100000000000000000000000000000000000000000000000000000000600052601160045260246000fd5b60008160011c9050919050565b6000808291508390505b600185111562000bb05780860481111562000b885762000b8762000b22565b5b600185161562000b985780820291505b808102905062000ba88562000b51565b945062000b68565b94509492505050565b60008262000bcb576001905062000c9e565b8162000bdb576000905062000c9e565b816001811462000bf4576002811462000bff5762000c35565b600191505062000c9e565b60ff84111562000c145762000c1362000b22565b5b8360020a91508482111562000c2e5762000c2d62000b22565b5b5062000c9e565b5060208310610133831016604e8410600b841016171562000c6f5782820a90508381111562000c695762000c6862000b22565b5b62000c9e565b62000c7e848484600162000b5e565b9250905081840481111562000c985762000c9762000b22565b5b81810290505b9392505050565b600060ff82169050919050565b600062000cbf82620006cb565b915062000ccc8362000ca5565b925062000cfb7fffffffffffffffffffffffffffffffffffffffffffffffffffffffffffffffff848462000bb9565b905092915050565b600062000d1082620006cb565b915062000d1d83620006cb565b925082820262000d2d81620006cb565b9150828204841483151762000d475762000d4662000b22565b5b5092915050565b600062000d5b82620006cb565b915062000d6883620006cb565b925082820190508082111562000d835762000d8262000b22565b5b92915050565b62000d9481620006cb565b82525050565b600060608201905062000db1600083018662000af4565b62000dc0602083018562000d89565b62000dcf604083018462000d89565b949350505050565b600060208201905062000dee600083018462000d89565b92915050565b61219a8062000e046000396000f3fe608060405234801561001057600080fd5b50600436106101585760003560e01c80638a9c46a8116100c3578063c18fd09e1161007c578063c18fd09e146103c9578063d5c1a937146103e5578063da20569e14610401578063dd62ed3e1461041d578063e707f36f1461044d578063f2fde38b1461047d57610158565b80638a9c46a8146102f35780638da5cb5b1461031157806395d89b411461032f578063a9059cbb1461034d578063b85da8d21461037d578063ba2eb5411461039957610158565b806327d6595b1161011557806327d6595b14610231578063313ce5671461024d5780635791676b1461026b57806370a082311461029b578063715018a6146102cb5780638897cad3146102d557610158565b806306fdde031461015d57806308c8995e1461017b578063095ea7b314610197578063126aa30d146101c757806318160ddd146101e357806323b872dd14610201575b600080fd5b610165610499565b6040516101729190611a46565b60405180910390f35b61019560048036038101906101909190611b03565b61052b565b005b6101b160048036038101906101ac9190611b79565b6105fd565b6040516101be9190611bc8565b60405180910390f35b6101e160048036038101906101dc9190611be3565b610620565b005b6101eb610632565b6040516101f89190611c1f565b60405180910390f35b61021b60048036038101906102169190611c3a565b61063c565b6040516102289190611bc8565b60405180910390f35b61024b60048036038101906102469190611be3565b61066b565b005b61025561067d565b6040516102629190611ca9565b60405180910390f35b61028560048036038101906102809190611cc4565b610686565b6040516102929190611bc8565b60405180910390f35b6102b560048036038101906102b09190611cc4565b6106a6565b6040516102c29190611c1f565b60405180910390f35b6102d36106ee565b005b6102dd610702565b6040516102ea9190611c1f565b60405180910390f35b6102fb610708565b6040516103089190611c1f565b60405180910390f35b61031961070e565b6040516103269190611d00565b60405180910390f35b610337610738565b6040516103449190611a46565b60405180910390f35b61036760048036038101906103629190611b79565b6107ca565b6040516103749190611bc8565b60405180910390f35b61039760048036038101906103929190611b79565b6107ed565b005b6103b360048036038101906103ae9190611cc4565b610a36565b6040516103c09190611bc8565b60405180910390f35b6103e360048036038101906103de9190611d1b565b610a97565b005b6103ff60048036038101906103fa9190611cc4565b610cb3565b005b61041b60048036038101906104169190611b79565b610e68565b005b61043760048036038101906104329190611d6e565b61101e565b6040516104449190611c1f565b60405180910390f35b61046760048036038101906104629190611cc4565b6110a5565b6040516104749190611c1f565b60405180910390f35b61049760048036038101906104929190611cc4565b6110f1565b005b6060600380546104a890611ddd565b80601f01602080910402602001604051908101604052809291908181526020018280546104d490611ddd565b80156105215780601f106104f657610100808354040283529160200191610521565b820191906000526020600020905b81548152906001019060200180831161050457829003601f168201915b5050505050905090565b610533611177565b600073ffffffffffffffffffffffffffffffffffffffff168273ffffffffffffffffffffffffffffffffffffffff16036105a2576040517f08c379a000000000000000000000000000000000000000000000000000000000815260040161059990611e5a565b60405180910390fd5b80600960008473ffffffffffffffffffffffffffffffffffffffff1673ffffffffffffffffffffffffffffffffffffffff16815260200190815260200160002060006101000a81548160ff0219169083151502179055505050565b6000806106086111fe565b9050610615818585611206565b600191505092915050565b610628611177565b8060088190555050565b6000600254905090565b6000806106476111fe565b9050610654858285611218565b61065f8585856112ac565b60019150509392505050565b610673611177565b80600a8190555050565b60006012905090565b60096020528060005260406000206000915054906101000a900460ff1681565b60008060008373ffffffffffffffffffffffffffffffffffffffff1673ffffffffffffffffffffffffffffffffffffffff168152602001908152602001600020549050919050565b6106f6611177565b61070060006113a0565b565b60085481565b600a5481565b6000600560009054906101000a900473ffffffffffffffffffffffffffffffffffffffff16905090565b60606004805461074790611ddd565b80601f016020809104026020016040519081016040528092919081815260200182805461077390611ddd565b80156107c05780601f10610795576101008083540402835291602001916107c0565b820191906000526020600020905b8154815290600101906020018083116107a357829003601f168201915b5050505050905090565b6000806107d56111fe565b90506107e28185856112ac565b600191505092915050565b6107f5611466565b6107fd611177565b600073ffffffffffffffffffffffffffffffffffffffff168273ffffffffffffffffffffffffffffffffffffffff160361086c576040517f08c379a000000000000000000000000000000000000000000000000000000000815260040161086390611ec6565b60405180910390fd5b600081116108af576040517f08c379a00000000000000000000000000000000000000000000000000000000081526004016108a690611f32565b60405180910390fd5b80600760008473ffffffffffffffffffffffffffffffffffffffff1673ffffffffffffffffffffffffffffffffffffffff168152602001908152602001600020600001541015610934576040517f08c379a000000000000000000000000000000000000000000000000000000000815260040161092b90611f9e565b60405180910390fd5b600a54811115610979576040517f08c379a00000000000000000000000000000000000000000000000000000000081526004016109709061200a565b60405180910390fd5b61098382826114ac565b80600760008473ffffffffffffffffffffffffffffffffffffffff1673ffffffffffffffffffffffffffffffffffffffff16815260200190815260200160002060000160008282546109d59190612059565b925050819055508173ffffffffffffffffffffffffffffffffffffffff167fc37df5d14f305277c1289e9a188a097cda6684189c95f785feb056cb77a8c91082604051610a229190611c1f565b60405180910390a2610a3261152e565b5050565b600080600760008473ffffffffffffffffffffffffffffffffffffffff1673ffffffffffffffffffffffffffffffffffffffff1681526020019081526020016000206001015442610a879190612059565b9050600854811015915050919050565b610a9f611466565b600960008273ffffffffffffffffffffffffffffffffffffffff1673ffffffffffffffffffffffffffffffffffffffff16815260200190815260200160002060009054906101000a900460ff16610b2b576040517f08c379a0000000000000000000000000000000000000000000000000000000008152600401610b22906120d9565b60405180910390fd5b81600760008573ffffffffffffffffffffffffffffffffffffffff1673ffffffffffffffffffffffffffffffffffffffff168152602001908152602001600020600001541015610bb0576040517f08c379a0000000000000000000000000000000000000000000000000000000008152600401610ba790611f9e565b60405180910390fd5b600a54821115610bf5576040517f08c379a0000000000000000000000000000000000000000000000000000000008152600401610bec9061200a565b60405180910390fd5b610bff83836114ac565b81600760008573ffffffffffffffffffffffffffffffffffffffff1673ffffffffffffffffffffffffffffffffffffffff1681526020019081526020016000206000016000828254610c519190612059565b925050819055508273ffffffffffffffffffffffffffffffffffffffff167fc37df5d14f305277c1289e9a188a097cda6684189c95f785feb056cb77a8c91083604051610c9e9190611c1f565b60405180910390a2610cae61152e565b505050565b610cbb611177565b600073ffffffffffffffffffffffffffffffffffffffff168173ffffffffffffffffffffffffffffffffffffffff1603610d2a576040517f08c379a0000000000000000000000000000000000000000000000000000000008152600401610d2190611ec6565b60405180910390fd5b6000600760008373ffffffffffffffffffffffffffffffffffffffff1673ffffffffffffffffffffffffffffffffffffffff1681526020019081526020016000206001015442610d7a9190612059565b90506008548110610e64576000600760008473ffffffffffffffffffffffffffffffffffffffff1673ffffffffffffffffffffffffffffffffffffffff1681526020019081526020016000206000015490506000600760008573ffffffffffffffffffffffffffffffffffffffff1673ffffffffffffffffffffffffffffffffffffffff168152602001908152602001600020600001819055508273ffffffffffffffffffffffffffffffffffffffff167fc623d81357a1cbb93768557b876d60b7e1fc2d971974e631c7c1c9bbff0a0aab82604051610e5a9190611c1f565b60405180910390a2505b5050565b610e70611177565b600073ffffffffffffffffffffffffffffffffffffffff168273ffffffffffffffffffffffffffffffffffffffff1603610edf576040517f08c379a0000000000000000000000000000000000000000000000000000000008152600401610ed690611ec6565b60405180910390fd5b60008111610f22576040517f08c379a0000000000000000000000000000000000000000000000000000000008152600401610f1990611f32565b60405180910390fd5b610f2c8282611538565b80600760008473ffffffffffffffffffffffffffffffffffffffff1673ffffffffffffffffffffffffffffffffffffffff1681526020019081526020016000206000016000828254610f7e91906120f9565b9250508190555042600760008473ffffffffffffffffffffffffffffffffffffffff1673ffffffffffffffffffffffffffffffffffffffff168152602001908152602001600020600101819055508173ffffffffffffffffffffffffffffffffffffffff167f5522eea310695242e9a97820729914e053a3ea3ab980666463a3e6b7f4d080f1826040516110129190611c1f565b60405180910390a25050565b6000600160008473ffffffffffffffffffffffffffffffffffffffff1673ffffffffffffffffffffffffffffffffffffffff16815260200190815260200160002060008373ffffffffffffffffffffffffffffffffffffffff1673ffffffffffffffffffffffffffffffffffffffff16815260200190815260200160002054905092915050565b6000600760008373ffffffffffffffffffffffffffffffffffffffff1673ffffffffffffffffffffffffffffffffffffffff168152602001908152602001600020600001549050919050565b6110f9611177565b600073ffffffffffffffffffffffffffffffffffffffff168173ffffffffffffffffffffffffffffffffffffffff160361116b5760006040517f1e4fbdf70000000000000000000000000000000000000000000000000000000081526004016111629190611d00565b60405180910390fd5b611174816113a0565b50565b61117f6111fe565b73ffffffffffffffffffffffffffffffffffffffff1661119d61070e565b73ffffffffffffffffffffffffffffffffffffffff16146111fc576111c06111fe565b6040517f118cdaa70000000000000000000000000000000000000000000000000000000081526004016111f39190611d00565b60405180910390fd5b565b600033905090565b61121383838360016115ba565b505050565b6000611224848461101e565b90507fffffffffffffffffffffffffffffffffffffffffffffffffffffffffffffffff81146112a65781811015611296578281836040517ffb8f41b200000000000000000000000000000000000000000000000000000000815260040161128d9392919061212d565b60405180910390fd5b6112a5848484840360006115ba565b5b50505050565b600073ffffffffffffffffffffffffffffffffffffffff168373ffffffffffffffffffffffffffffffffffffffff160361131e5760006040517f96c6fd1e0000000000000000000000000000000000000000000000000000000081526004016113159190611d00565b60405180910390fd5b600073ffffffffffffffffffffffffffffffffffffffff168273ffffffffffffffffffffffffffffffffffffffff16036113905760006040517fec442f050000000000000000000000000000000000000000000000000000000081526004016113879190611d00565b60405180910390fd5b61139b838383611791565b505050565b6000600560009054906101000a900473ffffffffffffffffffffffffffffffffffffffff16905081600560006101000a81548173ffffffffffffffffffffffffffffffffffffffff021916908373ffffffffffffffffffffffffffffffffffffffff1602179055508173ffffffffffffffffffffffffffffffffffffffff168173ffffffffffffffffffffffffffffffffffffffff167f8be0079c531659141344cd1fd0a4f28419497f9722a3daafe3b4186f6b6457e060405160405180910390a35050565b6002600654036114a2576040517f3ee5aeb500000000000000000000000000000000000000000000000000000000815260040160405180910390fd5b6002600681905550565b600073ffffffffffffffffffffffffffffffffffffffff168273ffffffffffffffffffffffffffffffffffffffff160361151e5760006040517f96c6fd1e0000000000000000000000000000000000000000000000000000000081526004016115159190611d00565b60405180910390fd5b61152a82600083611791565b5050565b6001600681905550565b600073ffffffffffffffffffffffffffffffffffffffff168273ffffffffffffffffffffffffffffffffffffffff16036115aa5760006040517fec442f050000000000000000000000000000000000000000000000000000000081526004016115a19190611d00565b60405180910390fd5b6115b660008383611791565b5050565b600073ffffffffffffffffffffffffffffffffffffffff168473ffffffffffffffffffffffffffffffffffffffff160361162c5760006040517fe602df050000000000000000000000000000000000000000000000000000000081526004016116239190611d00565b60405180910390fd5b600073ffffffffffffffffffffffffffffffffffffffff168373ffffffffffffffffffffffffffffffffffffffff160361169e5760006040517f94280d620000000000000000000000000000000000000000000000000000000081526004016116959190611d00565b60405180910390fd5b81600160008673ffffffffffffffffffffffffffffffffffffffff1673ffffffffffffffffffffffffffffffffffffffff16815260200190815260200160002060008573ffffffffffffffffffffffffffffffffffffffff1673ffffffffffffffffffffffffffffffffffffffff16815260200190815260200160002081905550801561178b578273ffffffffffffffffffffffffffffffffffffffff168473ffffffffffffffffffffffffffffffffffffffff167f8c5be1e5ebec7d5bd14f71427d1e84f3dd0314c0f7b2291e5b200ac8c7c3b925846040516117829190611c1f565b60405180910390a35b50505050565b600073ffffffffffffffffffffffffffffffffffffffff168373ffffffffffffffffffffffffffffffffffffffff16036117e35780600260008282546117d791906120f9565b925050819055506118b6565b60008060008573ffffffffffffffffffffffffffffffffffffffff1673ffffffffffffffffffffffffffffffffffffffff1681526020019081526020016000205490508181101561186f578381836040517fe450d38c0000000000000000000000000000000000000000000000000000000081526004016118669392919061212d565b60405180910390fd5b8181036000808673ffffffffffffffffffffffffffffffffffffffff1673ffffffffffffffffffffffffffffffffffffffff16815260200190815260200160002081905550505b600073ffffffffffffffffffffffffffffffffffffffff168273ffffffffffffffffffffffffffffffffffffffff16036118ff578060026000828254039250508190555061194c565b806000808473ffffffffffffffffffffffffffffffffffffffff1673ffffffffffffffffffffffffffffffffffffffff168152602001908152602001600020600082825401925050819055505b8173ffffffffffffffffffffffffffffffffffffffff168373ffffffffffffffffffffffffffffffffffffffff167fddf252ad1be2c89b69c2b068fc378daa952ba7f163c4a11628f55a4df523b3ef836040516119a99190611c1f565b60405180910390a3505050565b600081519050919050565b600082825260208201905092915050565b60005b838110156119f05780820151818401526020810190506119d5565b60008484015250505050565b6000601f19601f8301169050919050565b6000611a18826119b6565b611a2281856119c1565b9350611a328185602086016119d2565b611a3b816119fc565b840191505092915050565b60006020820190508181036000830152611a608184611a0d565b905092915050565b600080fd5b600073ffffffffffffffffffffffffffffffffffffffff82169050919050565b6000611a9882611a6d565b9050919050565b611aa881611a8d565b8114611ab357600080fd5b50565b600081359050611ac581611a9f565b92915050565b60008115159050919050565b611ae081611acb565b8114611aeb57600080fd5b50565b600081359050611afd81611ad7565b92915050565b60008060408385031215611b1a57611b19611a68565b5b6000611b2885828601611ab6565b9250506020611b3985828601611aee565b9150509250929050565b6000819050919050565b611b5681611b43565b8114611b6157600080fd5b50565b600081359050611b7381611b4d565b92915050565b60008060408385031215611b9057611b8f611a68565b5b6000611b9e85828601611ab6565b9250506020611baf85828601611b64565b9150509250929050565b611bc281611acb565b82525050565b6000602082019050611bdd6000830184611bb9565b92915050565b600060208284031215611bf957611bf8611a68565b5b6000611c0784828501611b64565b91505092915050565b611c1981611b43565b82525050565b6000602082019050611c346000830184611c10565b92915050565b600080600060608486031215611c5357611c52611a68565b5b6000611c6186828701611ab6565b9350506020611c7286828701611ab6565b9250506040611c8386828701611b64565b9150509250925092565b600060ff82169050919050565b611ca381611c8d565b82525050565b6000602082019050611cbe6000830184611c9a565b92915050565b600060208284031215611cda57611cd9611a68565b5b6000611ce884828501611ab6565b91505092915050565b611cfa81611a8d565b82525050565b6000602082019050611d156000830184611cf1565b92915050565b600080600060608486031215611d3457611d33611a68565b5b6000611d4286828701611ab6565b9350506020611d5386828701611b64565b9250506040611d6486828701611ab6565b9150509250925092565b60008060408385031215611d8557611d84611a68565b5b6000611d9385828601611ab6565b9250506020611da485828601611ab6565b9150509250929050565b7f4e487b7100000000000000000000000000000000000000000000000000000000600052602260045260246000fd5b60006002820490506001821680611df557607f821691505b602082108103611e0857611e07611dae565b5b50919050565b7f496e76616c696420706172746e65722061646472657373000000000000000000600082015250565b6000611e446017836119c1565b9150611e4f82611e0e565b602082019050919050565b60006020820190508181036000830152611e7381611e37565b9050919050565b7f496e76616c696420757365722061646472657373000000000000000000000000600082015250565b6000611eb06014836119c1565b9150611ebb82611e7a565b602082019050919050565b60006020820190508181036000830152611edf81611ea3565b9050919050565b7f416d6f756e74206d7573742062652067726561746572207468616e207a65726f600082015250565b6000611f1c6020836119c1565b9150611f2782611ee6565b602082019050919050565b60006020820190508181036000830152611f4b81611f0f565b9050919050565b7f496e73756666696369656e7420706f696e747300000000000000000000000000600082015250565b6000611f886013836119c1565b9150611f9382611f52565b602082019050919050565b60006020820190508181036000830152611fb781611f7b565b9050919050565b7f45786365656473206d61782072656465656d61626c65206c696d697400000000600082015250565b6000611ff4601c836119c1565b9150611fff82611fbe565b602082019050919050565b6000602082019050818103600083015261202381611fe7565b9050919050565b7f4e487b7100000000000000000000000000000000000000000000000000000000600052601160045260246000fd5b600061206482611b43565b915061206f83611b43565b92508282039050818111156120875761208661202a565b5b92915050565b7f506172746e6572206e6f7420617070726f766564000000000000000000000000600082015250565b60006120c36014836119c1565b91506120ce8261208d565b602082019050919050565b600060208201905081810360008301526120f2816120b6565b9050919050565b600061210482611b43565b915061210f83611b43565b92508282019050808211156121275761212661202a565b5b92915050565b60006060820190506121426000830186611cf1565b61214f6020830185611c10565b61215c6040830184611c10565b94935050505056fea2646970667358221220e13471987d5916e1cb9ccaa142b90bfa892ac0888b61c92f6b9486995be89eee64736f6c63430008180033",
  "linkReferences": {},
  "deployedLinkReferences": {}
}